:020000040800F2
:10000000A005002045010008B51B0008BD1300082D
:100010001B1B0008D90A0008372E0008000000004A
:100020000000000000000000000000009120000817
:10003000810F0008000000009D1D00089D210008A0
:100040005F0100085F0100085F0100085F01000810
:100050005F0100085F0100085F0100085F01000800
:100060005F0100085F0100085F0100085F010008F0
:100070005F0100085F0100085F0100085F010008E0
:100080005F0100085F0100085F0100085F010008D0
:100090005F0100085F0100085F010008B90F000858
:1000A0005F010008452400085F0100085F010008A7
:1000B000852400085F0100089D2400085F010008F6
:1000C0005F0100085F0100085F0100085F01000890
:1000D0005F010008A92A00085F0100085F0100080D
:1000E0005F0100085F0100085F0100085F01000870
:1000F0005F0100085F0100085F0100085F01000860
:100100005F0100085F0100085F0100085F0100084F
:100110005F0100085F0100085F0100085F0100083F
:100120005F0100085F0100085F0100085F0100082F
:10013000DFF80CD000F034FC00480047874D000881
:10014000A00500200648804706480047FEE7FEE776
:10015000FEE7FEE7FEE7FEE7FEE7FEE7FEE7FEE777
:10016000A5210008310100082DE9F0410024061BFB
:10017000254671F1000605DA01240027D0EB0700BF
:1001800067EB0101161E73F1000605DA0027D2EBBA
:100190000702012567EB030300F004FB86460E46C9
:1001A00017469C46AC4204D00025D0EB050E65EB0B
:1001B000010624B10020D2EB000760EB030C70466F
:1001C00031463A466346BDE8F081D2B201E000F81C
:1001D000012B491EFBD270470022F6E710B51346EB
:1001E0000A4604461946FFF7F0FF204610BD30B519
:1001F00004460020034600E05B1C934203D2E05C0F
:10020000CD5C401BF8D030BDF0B480EA0102D40FC1
:100210004200B2EB410F02D20246084611464A00A4
:1002200042D0C30DDDB2C1F3C752AD1A202D35DA6D
:10023000C1F3160141F4000204B15242C5F1200697
:1002400002FA06F12A411044B3EBD05F23D0C4B1C7
:10025000012DA0EBC35009DCF0BC4FF0004202EAD4
:10026000C352DBB200F5000000F0F7BA400000F125
:10027000807000EBC350A0F1807040EAD17049005B
:1002800009E0490841EAC071A0EBC35000F5000045
:10029000400800EBC350F0BC00F0D6BA6142012226
:1002A00002EB4101001BF6E7F0BC704781F0004112
:1002B000AAE780F00040A7E780EA010210B502F04B
:1002C0000043400022D04A001FD0010E01EB126112
:1002D000C0F35600C2F3560240F4000042F400029C
:1002E000A0FB022000047F39140400D0401C50EA17
:1002F000124001D44000491EC2B20C0604EBD010DB
:10030000401C4008802A02D003E0002010BD20F0ED
:100310000100002900DA0020184310BD30B480EA43
:10032000010202F0004530F0004221F0004013D0FD
:1003300090B1C30DD40DC2F31601C0F31600E41A38
:1003400041F4000140F400027D34914201D3641C69
:1003500000E04900002C02DA30BC002070474FF466
:1003600000000023914201D3891A034340084FEA59
:100370004101F7D151B1914202D14FF0004105E066
:1003800002D24FF0010101E06FF0010103EBC45014
:10039000284430BC00F058BA2DE9FE4F804681EA6F
:1003A0000300C00F0C46009021F0004123F00045EF
:1003B000B8EB0200A94105D24046214690461C46B2
:1003C0000B46024623F00040104347D0270DC7F3E9
:1003D0000A00C3F30A510290401A019040286BDAD8
:1003E000C3F3130040F4801B0098924620B1002311
:1003F000D2EB030A63EB0B0B01985946C0F14002A4
:10040000504600F000FA06460D4650465946019AFD
:1004100000F008FA10EB08006141002487EA11524D
:1004200084EAE7731A4340D0009A62B3019A012A22
:100430004FEA075215DC001B61EB02014FF000424E
:1004400002EA0752CDE90042001C41F58011324614
:100450002B4600F03FFA03B0BDE8F08F404621463E
:10046000F9E7001B61EB0201001C41F58013001845
:100470005B412018A2F5001747EB030140EAD57055
:10048000B6196D4111E06D084FEA360645EAC075B0
:100490004FEA0752001B61EB0201001C41F580117D
:1004A00049084FEA30000019514132462B4603B04B
:1004B000BDE8F04F00F0FFB9009801224000002392
:1004C000D0EB020263EBE073009821464FEAE07440
:1004D000B8EB000061EB0401E9E783F000435BE760
:1004E00081F0004158E72DE9FE4F81EA030404F052
:1004F000004421F0004100944FF0000B23F0004332
:1005000050EA01045ED052EA03045BD0C3F30A54FC
:10051000C1F30A552C44A4F2F3340194A0FB025415
:10052000C1F3130141F48011C3F3130343F48013A7
:1005300001FB024400FB034E840A970A44EA8154FB
:1005400047EA8357A4FB076802958D0A05FB0785D8
:100550004FEA932C04FB0C542705029D4FEA0658E2
:1005600047EA1637B5EB08056EEB070C870E920EBF
:1005700047EA811742EA8312A7FB0201B6EB0B019F
:1005800064EB00042B0D43EA0C335E1844EB1C5063
:10059000DA465146E7FB0201C5F313044FEA0B3379
:1005A00043EA14534FEA0432019C43EA0603A4F1E0
:1005B0000C040294009CCDE900B400F08BF903B068
:1005C000BDE8F08F00200146F9E72DE9F04D81EA02
:1005D000030404F0004B21F0004514464FF0000ADC
:1005E00023F0004150EA050220D054EA01021DD058
:1005F000C5F30A570246C5F31303C1F31300C1F351
:100600000A5640F4801543F48013A7EB0608101B2C
:10061000D64608F2FD3873EB050002D308F1010855
:1006200001E092185B41B8F1000F03DA00200146A7
:10063000BDE8F08D00204FF48011064684460EE0A0
:10064000171B73EB050705D3121B63EB050306436A
:100650004CEA010C49084FEA300092185B4150EA1D
:100660000107EDD152EA030012D082EA040083EAC6
:100670000501084305D0101BAB4106D2012200231F
:1006800006E000224FF0004302E06FF00102531039
:100690001AEB06004CEB085110EB0A0041EB0B0182
:1006A000BDE8F04D00F007B9C10F80EAE0700844E2
:1006B000CA079623002100F0D0B8962300221146E5
:1006C00000F0CBB800F0004220F00040C10DC0F3B4
:1006D000160040F400007F2901DA002070479629B7
:1006E00003DCC1F19601C84001E096398840002A38
:1006F000F4D04042704720F00040C10DC0F3160016
:1007000040F400007F2901DA00207047962903DCBD
:10071000C1F19601C840704796398840704700F093
:10072000004230F000400AD0C10D01F56071C0F305
:10073000160042EA0151C2084007114370470020E9
:100740000146704701F0004330B421F0004150EA07
:10075000010206D00A0DA2F56072C1F31301002A4E
:1007600002DC30BC00207047440F44EAC104C100E1
:10077000E01830BC00EBC25000F066B8002801DB86
:10078000C0F10040002901DBC1F100418142704706
:10079000002801DBC0F10040002901DBC1F100416C
:1007A000884270472DE9F05F0546002092469B463F
:1007B00088460646814640241BE028464146474677
:1007C000224600F0FFF853465A46C01A914110D312
:1007D00011461846224600F016F82D1A67EB01085C
:1007E0004F4622460120002100F00DF817EB0009CA
:1007F0004E41201EA4F10104DFDC484631462A4662
:100800004346BDE8F09F202A04DB203A00FA02F1BB
:10081000002070479140C2F1200320FA03F31943EE
:1008200090407047202A06DBCB17203A41FA02F0AD
:1008300043EAE07306E041FA02F3D040C2F120023D
:1008400091400843194670470029A8BF7047401CD3
:10085000490008BF20F00100704710B4B0FA80FCD6
:1008600000FA0CF050EA010404BF10BC704749B113
:10087000CCF1200421FA04F411FA0CF118BF012183
:1008800021430843A3EB0C01CB1D4FEA00614FEA63
:10089000102042BF002010BC704700EBC350104432
:1008A0000029A4BF10BC7047401C490008BF20F0BD
:1008B000010010BC704710B5141E73F1000408DA73
:1008C000401C41F1000192185B411A4301D120F014
:1008D000010010BD2DE9F04D92469B4611B1B1FAD1
:1008E00081F202E0B0FA80F220329046FFF78BFFEF
:1008F00004460F4640EA0A0041EA0B0153465A46B5
:10090000084313D0114653EA010019D0C8F1400240
:10091000504600F057F805460E46504659464246A6
:10092000FFF771FF084305D0012004E02046394657
:10093000BDE8F08D0020054346EAE0762C433743BE
:100940000A986305E40AA0EB08000022FD0A44EAC5
:1009500047540A3002D500200146E9E70105101985
:100960006941DDE9084500196941BDE8F04DA2E79C
:1009700070B521F0004303430CD0C1F30A550024A5
:10098000D5EB040564EB0403D617AD1AB34102DBC3
:100990000020014670BD201841EB025170BD0000DF
:1009A000064C074D06E0E06840F0010394E80700BC
:1009B00098471034AC42F6D3FFF7BEFBA86E000890
:1009C000C86E0008202A04DB203A21FA02F0002138
:1009D000704721FA02F3D040C2F12002914008434F
:1009E000194670472DE9F04D00231A461B1A8A411B
:1009F00003DB00200146BDE8F08DC1F30A52C1F3CC
:100A0000130141F480154FF0000BD10702D10018FB
:100A10006D41521E0027044640F2FF11384601EB9B
:100A2000620A3E468046024600204FF48011FFF7DE
:100A3000C9FFC2197141BB1846EB0100B4EB030CAE
:100A400075EB000C04D3E41A65EB000517460E465F
:100A5000241908F101006D4180463428E3DDF919BD
:100A600046EB0600091BA84103D24FF0FF321346A4
:100A700001E0002213461BEB070046EB0A51BDE8DC
:100A8000F04DFFF718BF00000E48007828B107208E
:100A90000D4908600F200D4908600D48007820B10D
:100AA000002009490860094908600A48007838B1FF
:100AB0006FF00600044908606FF00E0003490860FB
:100AC000704700003D0000201C0000202000002096
:100AD0003F0000203E00002000BFFEE7002001494B
:100AE000087070473800002008B50121102001F07F
:100AF00075F94FF40050ADF8000003208DF80200A6
:100B000010208DF803006946044800F04BFB0122D9
:100B10005103024800F025FC08BD00000010014010
:100B20001FB50121082001F059F90121084601F003
:100B300055F948208DF807002020ADF8040001A9E0
:100B4000114800F02FFB0521012000F00BFB2020B5
:100B5000029001208DF80E0000208DF80C000C2072
:100B60008DF80D0002A800F075FA17208DF800002E
:100B700001208DF803008DF8010000208DF802009F
:100B8000684601F025F81FBD000C014010B54FF478
:100B9000A06001F055F810BD10B501F02FF94FF429
:100BA000803001F0EDF901F049FA0446012C24D11E
:100BB000102000F0BDFA022000F0C8FA002001F079
:100BC000D3F9002001F00EFAA00201F0FFF94FF472
:100BD000E011200401F018FA012001F00FFA00BF23
:100BE000392001F09BF90028FAD0022001F01AFA0E
:100BF00000BF01F0B1F90828FBD110BD00B587B0E6
:100C00000121042001F0EAF80121084601F0D6F89C
:100C100004208DF81B000320ADF8180006A91E481B
:100C200000F0C0FA03A801F0EDFE0020ADF81200BC
:100C3000ADF80E004FF6FF70ADF810000020ADF8D3
:100C40000C0003A94FF0804001F08AFE00231A46F1
:100C500003214FF0804001F05CFC684601F0E4FCA9
:100C60000A20ADF808006946400701F087FC012121
:100C7000880701F02DFC01221146900701F0DDFCF0
:100C800000214FF0804001F03CFE0121880701F077
:100C900025FC07B000BD00000008014000B587B08A
:100CA0000121082001F09AF80121042001F086F8C2
:100CB00004208DF81B00C020ADF8180006A91C48C0
:100CC00000F070FA03A801F09DFE0020ADF81200BC
:100CD000ADF80E004FF6FF70ADF810000020ADF833
:100CE0000C0003A9134801F03BFE00231A46032120
:100CF000104801F00EFC684601F096FC0A20ADF8A1
:100D0000080069460B4801F039FC0121094801F04F
:100D1000DFFB01221146074801F08FFC0021054846
:100D200001F0EFFD0121034801F0D8FB07B000BD41
:100D3000000C0140000800407FB505460C4601212B
:100D4000C80201F04BF8ADF80850ADF8044000209F
:100D5000ADF80A00ADF8060001A90E4801F000FE4A
:100D6000012211460B4801F068FC19208DF80000A3
:100D700000208DF8010002208DF8020001208DF87E
:100D80000300684600F024FF0121024801F0A6FBA1
:100D90007FBD0000002C014010B588B00446012141
:100DA0000C2001F01BF80121022001F007F81820A7
:100DB0008DF81F000320ADF81C008DF81E0007A958
:100DC0002A4800F0EFF918208DF81F00C020ADF878
:100DD0001C0003208DF81E0007A9254800F0E2F949
:100DE000ADF814400020ADF81000ADF81600ADF8D5
:100DF000120004A91F4801F0B3FD7020ADF80000F7
:100E00000020ADF80600ADF808000120ADF80200A2
:100E10006946184801F01AFC6946164801F06CFC56
:100E20006946144801F0C8FC6946124801F01EFDED
:100E30000121104801F05EFB08210E4801F052FC30
:100E400008210C4801F0AAFC08210A4801F004FD21
:100E50000821084801F048FD0121064801F02CFB5B
:100E60000121044801F03AFB08B010BD000C01401C
:100E7000000801400004004010B586B0044601217E
:100E8000880300F0ABFF0121042000F0A7FF4FF41E
:100E90000070ADF8140018208DF8170003208DF8AD
:100EA000160005A9224800F07DF94FF48060ADF8E6
:100EB000140004208DF8170005A91D4800F072F9F0
:100EC00001A801F0ACFF01940020ADF80800ADF8D6
:100ED0000A00ADF80C000C20ADF80E000020ADF8B3
:100EE000100001A9134801F025FF25208DF800000E
:100EF00002208DF8010001208DF802008DF803001A
:100F0000684600F065FE012240F22551094801F0D3
:100F1000EBFE012240F22771064801F0E5FE0121B7
:100F2000044801F09EFE00200349087006B010BD81
:100F300000080140003801403C00002030B5034665
:100F4000002016E0B3F900509C68645D0C541C88C6
:100F5000641C24B21C80B3F90040B3F90450AC42C5
:100F600001DB00241C80441C20B2DC88641E24B2F7
:100F7000DC80B3F90640002C01DD9042E2DB30BD9D
:100F80007047000001B504490098086000BF02489E
:100F900000680028FBD108BDA400002001B500981E
:100FA00006E0002101E04A1C91B20729FBDB401E4C
:100FB0000028F6D108BD000010B5202000F036F85A
:100FC000C8B10D480068B0B9202000F029F800BF72
:100FD0000A4A0B490B4803F015FF0028F8D10A4ACA
:100FE0000A490B4800F0AAFA0A4A0B490B4800F0DC
:100FF000CDFA00F05FFE10BD1481214208000020F0
:101000000400002000000020100000200E0000203E
:101010000C00002016000020140000201200002008
:101020000149086070470000140401400146002097
:101030000022074B1B6803EA0102054B14331B68AF
:101040000B4013B10AB1012000E0002070470000FE
:1010500000040140002123498279002A3AD00A463F
:10106000126803689A430B461A600A1D12680368E7
:101070009A430B1D1A60027911440A6803681A43E7
:101080000A60184A0832126803689A43154B0833FD
:101090001A601A1D126803689A43124B0C331A60C7
:1010A0004279102A0ED11A1F126803681A430D4B99
:1010B00008331A601A1D126803681A43094B0C336F
:1010C0001A600DE00749427911440A6803681A431F
:1010D0000A6005E0027911440A6803689A430A60CD
:1010E000704700000004014070B50346002016E080
:1010F0000C5CB3F902609D68AC555C88641C24B23A
:101100005C80B3F90240B3F90450AC4201DB002427
:101110005C80441C20B2DC88641C24B2DC80B3F9FF
:101120000640B3F90450AC4201DA9042E0DB70BDF6
:101130000549096821F01001034A11601146096848
:10114000014311607047000000200240014600206A
:10115000034A106800F03800084310607047000030
:101160000020024030B500228B071C0F0F2303FA2A
:1011700004F20B4B8C1053F824309343084C8D1021
:1011800044F8253023468C1053F824308C07240F64
:1011900000FA04F42343024C8D1044F8253030BD8E
:1011A000080001402DE9F0410246002500260020FC
:1011B00000230024002791F803C00CF00F0591F8DC
:1011C00003C00CF0100CBCF1000F03D091F802C06A
:1011D0004CEA050591F800C0BCF1000F31D014684D
:1011E00000202BE04FF0010C0CFA00F3B1F800C026
:1011F0000CEA03069E4220D183004FF00F0C0CFA3C
:1012000003F7BC4305FA03FC4CEA040491F803C05D
:10121000BCF1280F06D14FF0010C0CFA00FCC2F80B
:1012200014C00AE091F803C0BCF1480F05D14FF09B
:10123000010C0CFA00FCC2F810C0401C0828D1D3E5
:101240001460B1F800C0BCF1FF0F34DD5468002019
:101250002EE000F1080C4FF0010808FA0CF3B1F889
:1012600000C00CEA03069E4221D183004FF00F0C10
:101270000CFA03F7BC4305FA03FC4CEA040491F8AA
:1012800003C0BCF1280F05D100F1080C08FA0CF8D6
:10129000C2F8148091F803C0BCF1480F07D100F1E7
:1012A000080C4FF0010808FA0CF8C2F81080401C36
:1012B0000828CED35460BDE8F0810000F0B50A469E
:1012C000002300240021002500F00046B6F1004F65
:1012D00002D11D4EF16901E01B4E7168C0F3034558
:1012E00083B200F44016B6F5401F08D121F07061BA
:1012F000154E766826F07066134F7E6012E000F49B
:101300008016B6F5801F06D1032606FA05F4A14320
:1013100041F0706106E0460D360103FA06F6B1436E
:1013200041F0706122B1460D360103FA06F63143F1
:1013300000F00046B6F1004F02D1034EF16101E02A
:10134000014E7160F0BD0000000001400246002027
:10135000D3680B400BB1012000E000207047016111
:1013600070470AB1016100E04161704701480078AF
:1013700070470000380000202DE9F04106460024A7
:101380000025304601F0E6F80446C4F5803500211A
:10139000304601F0B6FAB6F1804F06D1AC4201DA20
:1013A000204600E06842074605E0AC4201DA6042B0
:1013B00000E0284607463846BDE8F08100BFFEE75A
:1013C00010B5FFF76BFCFFF719FC10BD10B500F06E
:1013D000E9FE00F04BF800F02DF84FF4165000F045
:1013E00084F800F07BF800F01DF800F043F8FFF7F8
:1013F000E7FF00F023F80021084600F091FB00F021
:1014000039FA02E004A001F025FD03F00DFE0028EA
:10141000F8D100F00BF810BD4C6F6164696E670D78
:101420000A00000010B5FFF75FFB10BD10B5FFF715
:1014300077FB10BD10B5FFF7A9FB10BD10B54FF637
:10144000FF70FFF7A9FC10BD30B50B4600240480E7
:1014500044808280C4808360002104E00024856889
:101460006C544C1C21B29142F8DB30BD10B5FFF733
:1014700093FB10BD30B5164800684FF47A72B0FB8C
:10148000F2F1B1F1807F01D301201DE021F07F4016
:10149000401E4FF0E022506150170F22002807DA5B
:1014A00013071D0E0B4B00F00F04241F1D5503E006
:1014B00013071C0E084B1C5400BF00204FF0E02205
:1014C000906107201061002008B100BFFEE730BD29
:1014D0009000002018ED00E000E400E010B5472186
:1014E00040F2E730FFF728FC10BD10B5044600F0CD
:1014F00005F82046FFF7C0FC10BD000010B5002421
:1015000006E000200949085509490855601C04B245
:10151000642CF6DB642205490648FFF795FF642238
:1015200003490548FFF790FF10BD0000C8000020E8
:101530002C010020B0000020BC0000202DE9FC415F
:1015400004460D4616466B4606223B21682000F0F5
:101550000EFA0746BFB99DF801009DF8001040EA59
:10156000012000B220809DF803009DF8021040EA9F
:10157000012000B228809DF805009DF8041040EA83
:10158000012000B230803846BDE8FC812DE9FC41E5
:1015900004460D4616466B4606224321682000F09D
:1015A000E6F90746BFB99DF801009DF8001040EA32
:1015B000012000B220809DF803009DF8021040EA4F
:1015C000012000B228809DF805009DF8041040EA33
:1015D000012000B230803846BDE8FC8110B5002003
:1015E0000E4908600E48006820F470400C490860FD
:1015F0000846006840F44050086000200949C1F8DE
:10160000AC0100F011F801200449086000F00CF86A
:1016100000200449C1F8A80110BD0000A8812142A2
:10162000040C01400080214210B50220FFF7B6FCF7
:1016300010BD000008B50121082000F0CFFB4FF4D9
:101640004060ADF8000003208DF8020010208DF8F6
:10165000030069460448FFF7A5FD4FF440610248C6
:10166000FFF77DFE08BD0000000C014010B5002012
:101670000E4908600E48006820F470400C4908606C
:101680000846006840F44050086001200949C1F84C
:10169000AC01FFF7C9FF012004490860FFF7C4FF50
:1016A00000200449C1F8A80110BD0000A881214212
:1016B000040C01400080214270B505460024164804
:1016C000006820F47040144908600846006840F43F
:1016D00000400860002614E0002010490860FFF771
:1016E000A3FF01200E49C1F8A8016006040E0B48B3
:1016F0007C38006808B1601CC4B2FFF795FF701C0D
:10170000C6B2082EE8DB15B9FFF7B0FF01E0FFF71E
:1017100065FF204670BD0000040C0140A8812142F5
:101720000080214270B504461248006820F47040E1
:10173000104908600846006840F4405008600020E6
:101740000D490860002512E0E0090B49091D0860F9
:101750006006040E01200949C1F8A801FFF764FFE3
:10176000002005490860FFF75FFF681CC5B2082D1F
:10177000EADB70BD040C0140A881214200802142B7
:1017800010B50E48006820F470400C490860084607
:10179000006840F440500860012009490860094988
:1017A000C1F8A801FFF740FF002005490860FFF7D6
:1017B0003BFF00200349C1F8A80110BD040C014003
:1017C000AC8121420080214210B50E48006820F40F
:1017D00070400C4908600846006840F440500860BA
:1017E0000020094908600949C1F8AC01FFF71CFF56
:1017F0000120054908600549C1F8AC01FFF714FF55
:1018000010BD0000040C0140A8812142008021424B
:1018100010B500241448006820F470401249086094
:101820000846006840F40040086001200F49086045
:10183000FFF7FAFE01200E49C1F8A801FFF7F4FEF8
:1018400007E0601CC4B2FA2C03DDFFF7BDFF0120E6
:1018500010BD0648803800680028F2D10349091FEE
:10186000086000BFF4E70000040C0140AC81214295
:101870000080214238B50121084600F0AFFA01216D
:10188000042000F0ABFA4FF40040ADF80000102047
:101890008DF8030003208DF8020069462248FFF707
:1018A00081FC01212148FFF709FD00202049086043
:1018B000FFF7C0FE80216B2000F0DDF86420FFF709
:1018C00061FB00216B2000F0D6F8032000F091F8B6
:1018D000002000F086F8322000F0B0F80021382017
:1018E00000F0C9F800216A2000F0C5F8002123208B
:1018F00000F0C1F88021372000F0BDF8752000F01D
:1019000019F80446682C0BD101216B2000F0B3F8C4
:1019100000216C2000F0AFF8C82000F08FF801E043
:10192000012038BD0020FCE7000801400002300023
:10193000BC01214270B50446FFF722FFD020FFF71B
:10194000F1FEFFF765FF2046FFF7ECFEFFF760FFB3
:10195000FFF716FFD120FFF7E5FEFFF759FF002044
:10196000FFF7AAFE0546FFF72FFF284670BD2DE9B9
:10197000F04106460F4614461D46FFF701FF0021C1
:1019800041EA4601C8B2FFF7CDFEFFF741FF20B1A3
:10199000FFF71AFF0120BDE8F0813846FFF7C2FECD
:1019A000FFF736FFFFF7ECFE012101EB4601C8B25D
:1019B000FFF7B8FEFFF72CFF0DE0012C04D100204B
:1019C000FFF77AFE287003E00120FFF775FE28700C
:1019D000601EC4B26D1C002CEFD1FFF7F5FE002095
:1019E000D9E710B50446E006010E1C2000F043F8CC
:1019F00010BD10B50446E006010E1B2000F03BF8B8
:101A000010BD70B504460025BC2C01DB012510E09B
:101A1000622C01DB02250CE02A2C01DB032508E007
:101A2000142C01DB042504E00A2C01DB052500E071
:101A3000062529461A2000F01EF870BD70B5044630
:101A4000B4F57A7F01DD4FF47A74042C00DA0424B3
:101A50004FF47A7090FBF4F0401EC5B2294619206D
:101A600000F009F80546264604EBD671C1F34F0095
:101A7000FFF7C7FF70BD70B505460C46FFF780FE47
:101A8000D020FFF74FFEFFF7C3FE18B1FFF79CFE13
:101A9000012070BD2846FFF745FEFFF7B9FE20463E
:101AA000FFF740FEFFF7B4FE18B1FFF78DFE0120EF
:101AB000EFE7FFF789FE0020EBE72DE9F04105464F
:101AC0000E4617469846FFF75BFE002141EA4501A6
:101AD000C8B2FFF727FEFFF79BFE20B1FFF774FEA9
:101AE0000120BDE8F0813046FFF71CFEFFF790FEB5
:101AF00000240CE018F80400FFF714FEFFF788FE3E
:101B000018B1FFF761FE0120EBE7601CC4B2BC42D4
:101B1000F0DBFFF759FE0020E3E700BFFEE700001F
:101B200010B5002805DA002903DA002240424942B4
:101B300006E0002803DD002901DD012200E0022289
:101B4000012A09D11A4C20800023241D2380241D42
:101B50002180241D23802AE04AB90023144C2380CD
:101B6000241D2080241D2380241D21801FE0022AA3
:101B70001DD100280DDD00290BDA00230C4C238039
:101B8000241D20804B42241D23800023241D2380FC
:101B90000DE000280BDA002909DD4342044C2380C4
:101BA0000023241D2380241D2380241D218010BD9B
:101BB000340400407047000000F01F0201219140F2
:101BC000024A430942F823107047000080E200E017
:101BD00070B5002100230F22C47804B3154C24688B
:101BE00004F4E064C4F5E064210AC1F10403CA40CE
:101BF000447804FA03F184781440214309010E4C1F
:101C00000678A155047804F01F050124AC4005783E
:101C10006D11AD0005F1E025C5F8004109E004783B
:101C200004F01F050124AC40044D0678761145F8F8
:101C3000264070BD0CED00E000E400E080E100E033
:101C400002490143024A1160704700000000FA0592
:101C50000CED00E02DE9F05F04460D4611480068E8
:101C6000114909680844071B2846FEF71DFD8346F5
:101C70000E4801685846FEF71FFB81463846FEF7BE
:101C800013FD83460A4801685846FEF715FB824655
:101C90004946FEF7B9FA8046FEF714FD064630467F
:101CA000BDE8F09F180000201C0000202800002044
:101CB000240000202DE9F04111480068FEF702FDE4
:101CC00006461048B0F900103046FFF7C3FF07463C
:101CD00000F01CF83C1848F6B800844200DD0446C9
:101CE0000948844200DA0446FEF7CEFE00F0A0FE6A
:101CF0000546611B6019FFF713FFBDE8F081000086
:101D000000000020140000204877FFFF2DE9F04775
:101D10004FF08040FFF730FB1B4909680D1A1B4844
:101D200000682844194908600846006841F270714B
:101D3000884202DD084615490860144800681449C5
:101D4000884202DA08461149086010480068FEF728
:101D5000ABFC81460F4801684846FEF7ADFA0746DE
:101D60002846FEF7A1FC81460B4801684846FEF76D
:101D7000A3FA80463946FEF747FA0646FEF7A2FC6C
:101D800004462046BDE8F0872000002034000020F3
:101D900090E8FFFF300000202C000020704710B5B5
:101DA000FFF7E4FA08B1FEF799FE10BD0146C888B6
:101DB00008B9012070470020FCE7000029B1064A5D
:101DC000D2690243044BDA6104E0034AD2698243D8
:101DD000014BDA61704700000010024029B1064A49
:101DE00092690243044B9A6104E0034A9269824378
:101DF000014B9A6170470000001002400F480068D4
:101E000040F001000D490860084640680C49084050
:101E10000A494860084600680A49084007490860BE
:101E20000846006820F4802008600846406820F4D6
:101E3000FE0048604FF41F008860704700100240A9
:101E40000000FFF8FFFFF6FE30B50021002200245D
:101E500000232D4D6D6805F00C0121B1042905D03A
:101E6000082923D105E0294D056022E0274D0560B2
:101E70001FE0254D6D6805F47012234D6D6805F463
:101E80008034022505EB92421CB9214D5543056073
:101E90000BE01D4D6D6805F400351DB11C4D55431B
:101EA000056002E0194D5543056002E0174D0560DD
:101EB00000BF00BF144D6D6805F0F0010909154D14
:101EC0006B5C0568DD4045600F4D6D6805F4E061B1
:101ED000090A104D6B5C4568DD4085600A4D6D68F0
:101EE00005F46051C90A0B4D6B5C4568DD40C56067
:101EF000054D6D6805F44041890B074D6B5CC56865
:101F0000B5FBF3F5056130BD0010024000127A0008
:101F100000093D00790000208900002010B501462D
:101F20000022002300204A11012A02D1094C236813
:101F300006E0022A02D1074C236A01E0054C636ADD
:101F400001F01F02012494401C400CB1012000E06C
:101F5000002010BD001002400248406800F00C0054
:101F6000704700000010024001460020034A5068FC
:101F700020F0F0000843506070470000001002405D
:101F80001149096821F480310F4A1160114609682E
:101F900021F480211160B0F5803F03D0B0F5802F8F
:101FA0000ED106E00849096841F48031064A116003
:101FB00007E00549096841F4A021034A116000E0E7
:101FC00000BF00BF70470000001002400146002023
:101FD000034A506820F4E0600843506070470000F6
:101FE0000010024001460020034A506820F460506F
:101FF00040EAC10050607047001002400149086685
:10200000704700000000424202460020044B58681E
:1020100020F47C1042EA01031843014B58607047DA
:102020000010024001460020034A506820F00300DF
:1020300008435060704700000010024038B500208F
:1020400000900024002500BF3120FFF767FF054600
:102050000098401C00900098B0F5A06F01D0002DB2
:10206000F2D03120FFF75AFF08B1012400E000242C
:10207000204638BD70B5044600250122214603489C
:10208000FEF75CFFC5B2284670BD0000B00000201E
:102090007047000010B50446E1B2054800F0BBFEF1
:1020A00000BF4021024800F0E8FD0028F9D010BD33
:1020B0000038014010B500F001F810BD0CB500204B
:1020C000019000903348006840F480303149086046
:1020D00000BF3048006800F4003000900198401CB8
:1020E0000190009818B90198B0F5A06FF1D1294876
:1020F000006800F4003010B10120009001E00020E1
:1021000000900098012843D12348006840F0100057
:10211000214908600846006820F00300086008466E
:10212000006840F0020008601A4840681949486099
:102130000846406848600846406840F4806048604F
:102140000846406820F47C1048600846406840F427
:10215000E81048600846006840F08070086000BFE2
:102160000C48006800F000700028F9D00948406869
:1021700020F00300074948600846406840F002002C
:10218000486000BF0348406800F00C000828F9D1FF
:102190000CBD0000001002400020024010B500F00D
:1021A0003BFC10BD10B51348006840F00100114918
:1021B000086008464068104908400E4948600846D3
:1021C00000680E4908400B4908600846006820F482
:1021D000802008600846406820F4FE0048604FF404
:1021E0001F008860FFF766FF4FF000600449086039
:1021F00010BD0000001002400000FFF8FFFFF6FED7
:1022000008ED00E0F0B50C46154600220021068CD2
:102210004FF6FE773E400684028B018C4FF60C761B
:1022200032407E1C06EA03162E433243104EB04263
:102230000ED0104EB0420BD0B0F1804F08D00E4EF1
:10224000B04205D00D4EB04202D00D4EB04206D184
:102250004FF6FD76314044F00106314305E04FF67C
:10226000F576314044F00106314302830184F0BD2C
:10227000002C0140003401400004004000080040F0
:10228000000C0040F0B50C46154600220021002647
:10229000078C4FF6EF7C07EA0C070784028B018C52
:1022A0004FF6FF7707EA041640F6FF473A404FF62D
:1022B000FF7707EA03373A434FF6FF7707EA052728
:1022C0003A43114FB8420ED0104FB8420BD0B0F184
:1022D000804F08D00E4FB84205D00E4FB84202D002
:1022E0000D4FB84206D14FF6DF77394046F0100760
:1022F000394305E04FF65F77394044F01007394322
:1023000002830184F0BD0000002C01400034014034
:102310000004004000080040000C0040F0B50C46EE
:102320001546002200210026078C4FF6FF6C07EAB5
:102330000C070784828B018C4FF6FF7707EA04268F
:102340004FF60C773A404FF6FF7707EA03172F4313
:102350003A43114FB8420ED0104FB8420BD0B0F1F3
:10236000804F08D00E4FB84205D00E4FB84202D071
:102370000D4FB84206D14FF6FF57394046F48077EB
:10238000394305E04FF2FF57394044F48077394331
:1023900082830184F0BD0000002C01400034014024
:1023A0000004004000080040000C0040F0B50C465E
:1023B0001546002200210026078C4EF6FF7C07EA16
:1023C0000C070784828B018C4FF6FF7707EA0436EF
:1023D00040F6FF473A404FF6FF7707EA05273A43B2
:1023E0004FF6FF7707EA03373A43114FB8420ED052
:1023F000104FB8420BD0B0F1804F08D00E4FB8420A
:1024000005D00E4FB84202D00D4FB84206D14DF65E
:10241000FF77394046F48057394305E047F6FF57C8
:10242000394044F48057394382830184F0BD000071
:10243000002C01400034014000040040000800402E
:10244000000C004010B501210B4800F086F801286F
:1024500003D10121084800F03EF808480088401CDC
:102460000649088008460088012804DB002008800F
:1024700001200349087010BD002C01403A000020E3
:102480003800002010B50121880700F066F8012807
:1024900003D10121800700F01EF810BD10B5012105
:1024A000044800F05AF8012803D10121014800F046
:1024B00012F810BD0008004021B1028842F08002ED
:1024C000028004E002884FF67F731A400280704752
:1024D000CA4302827047CA430282704721B1028810
:1024E00042F00102028004E002884FF6FE731A40B7
:1024F0000280704731B1B0F8442042F40042A0F8A5
:10250000442005E0B0F84420C2F30E02A0F84420B5
:102510007047F0B50C4615461E46002100220023E8
:102520000189028B038C4FF6F877394021434FF62F
:10253000FC473A4040F201173A434FF6DD773B4003
:102540004FF6FF7707EA06172F433B4301810283CB
:102550000384F0BD0146888C704730B502460020E8
:1025600000230024158A05EA0103958905EA010480
:1025700013B10CB1012000E0002030BD70B505465C
:102580000C46244885420ED0234885420BD0B5F135
:10259000804F08D02148854205D02148854202D08D
:1025A0002048854200D100E000BF208850B923892F
:1025B000A28861882846FFF725FEE188284600F0BA
:1025C000A2F925E0208804280AD12389A2886188FD
:1025D0002846FFF757FEE188284600F09DF917E0EE
:1025E000208808280AD12389A28861882846FFF715
:1025F00095FEE188284600F09CF909E02389A2882D
:1026000061882846FFF7D2FEE188284600F09AF953
:1026100070BD0000002C0140003401400004004067
:1026200000080040000C0040002101804180012191
:1026300081800021C180018170471AB183890B43D9
:10264000838102E083898B438381704770B50024C6
:1026500000220023058C4FF6FE7635400584028C5F
:102660008388048B4FF68F752C40B51E2C400D8847
:102670002C43751E2A400D892A434D882A43144D48
:10268000A8420BD0134DA84208D0134DA84205D044
:10269000124DA84202D0124DA84213D14FF6F77541
:1026A0002A404D892A434FF6FB752A408D882A43DC
:1026B0004FF6FF652B404FF6FF552B408D892B437E
:1026C000CD892B4383800483CD888586028470BDA9
:1026D000002C014000340140004001400044014012
:1026E000004801400A460021018B4FF6F77319405C
:1026F000114301837047000070B5002400220023BD
:10270000058C4FF6EF7635400584028C8388048B68
:1027100048F6FF752C404FF6FF452C400D884FF6CC
:10272000FF7606EA05252C434FF6DF752A400D8912
:1027300006EA05152A434D8806EA05152A43154D74
:10274000A84202D0144DA8421DD14FF67F752A40F1
:102750004D894FF6FF7606EA05152A434FF6BF75F9
:102760002A408D8806EA05152A434FF6FF352B408F
:102770004FF2FF752B408D8906EA85052B43CD89E5
:1027800006EA85052B4383800483CD880587028470
:1027900070BD0000002C0140003401400A460021B9
:1027A000018B4FF2FF7319404FF6FF7303EA0223C8
:1027B000194301837047000070B5002400220023F4
:1027C000058C4FF6FF6635400584028C8388848B28
:1027D0004FF68F752C404FF6FC752C400D882C431E
:1027E0004FF6FF552A400D894FF6FF7606EA05257C
:1027F0002A434D8806EA05252A43154DA84202D0F2
:10280000144DA8421DD14FF2FF752A404D894FF655
:10281000FF7606EA05252A434FF6FF352A408D88C4
:1028200006EA05252A434EF6FF752B404DF6FF7547
:102830002B408D8906EA05152B43CD8906EA05153F
:102840002B4383808483CD888587028470BD0000FC
:10285000002C0140003401400A460021818B4FF6D4
:10286000F7731940114381837047000070B500224F
:1028700000230024058C4EF6FF7635400584038C3A
:102880008488828B48F6FF752A404FF6FF452A4020
:102890000D884FF6FF7606EA05252A434DF6FF75AB
:1028A0002B400D8906EA05352B434D8806EA053590
:1028B0002B430B4DA84202D00A4DA84208D14BF63B
:1028C000FF752C408D894FF6FF7606EA85152C435F
:1028D00084808283CD88A0F84050038470BD0000BE
:1028E000002C0140003401400A460021818B4FF248
:1028F000FF7319404FF6FF7303EA022319438183E4
:10290000704781847047028B4FF6F3731A4002833D
:10291000028B0A4302837047028B4FF2FF331A4047
:102920000283028B4FF6FF7303EA01231A430283EB
:102930007047828B4FF6F3731A408283828B0A436F
:1029400082837047828B4FF2FF331A408283828BDF
:102950004FF6FF7303EA01231A4382837047000096
:10296000002202881D4B98420ED01D4B98420BD07E
:10297000B0F1804F08D01B4B984205D01A4B9842BB
:1029800002D01A4B984204D14FF68F731A404B88ED
:102990001A43174B984207D0164B984204D04FF673
:1029A000FF431A40CB881A4302808B8883850B88AB
:1029B00003850A4B98420BD0094B984208D00E4B26
:1029C000984205D00D4B984202D00D4B984201D150
:1029D0000B7A03860123838270470000002C01409C
:1029E000003401400004004000080040000C00409A
:1029F000001000400014004000400140004401402D
:102A0000004801404FF6FF71818000210180C180A4
:102A100041800172704700000448006820B10348FB
:102A20000068401E0149086070470000A4000020B3
:102A30002DE9F05F174D002643F6982716480078D9
:102A400018B100254FF07E5607E01448007810B109
:102A50000025134E01E00F4D00263846FDF724FEF9
:102A600083463146FDF728FC81460E48B0F9000048
:102A7000FDF71AFE83462946FDF71EFC82464946AD
:102A8000FDF7C2FB8046FDF71DFE04462046BDE86B
:102A9000F09F00000000C0BF400000204100002067
:102AA000000080BF16000020F8B50020009040F222
:102AB0002551584800F0EEF8002872D02520FFF785
:102AC0007BF8544800F0A2F9C0B200904FF40051D6
:102AD0005148FEF73BFCC0F10100C4B222464FF45E
:102AE00000514D48FEF73DFC9DF80000082868D2D3
:102AF000DFE800F06704111F2D3A485801204749CC
:102B00000870002046490870464908704649087018
:102B10004649087055E000204049087001204049AE
:102B2000087000203F4908703F4908703F4908700D
:102B300047E0002039490870394908703949087060
:102B400001203949087000203849087039E0002018
:102B500032490870324908703249087032490870A9
:102B60000120324908702CE000202C4908702C49C3
:102B7000087001202B49087000202B4908702B4950
:102B800008701EE02A480068FDF7C9FD0646294A7C
:102B9000294BFDF701FC0446FDF7D4FD24490860EC
:102BA0000FE013E022480068FDF7B9FD0646214A10
:102BB000214BFDF792FC0446FDF7C4FD1C4908605B
:102BC00000BF00BF9DF8000000F038F940F2277107
:102BD000104800F05FF8E0B140F227710D4800F0B6
:102BE00031F82520FEF7E8FF6846FFF743FA9DF825
:102BF0000010084800F00FF91048FFF7D7F840B16F
:102C000000200F490870002240F22771014800F0AF
:102C10006BF8F8BD00380140001001403D00002075
:102C20003E0000203F000020400000204100002026
:102C3000280000207B14AE47E17A843FB0000020DA
:102C40003C00002010B50022002340F66A14A14287
:102C500000D100BF0A1201249440A3B2DC430480D7
:102C600010BD21B1828942F40052828104E0828940
:102C70004DF6FF731A408281704702460020B1F57D
:102C8000007F00D100BF13880B400BB1012000E092
:102C90000020704770B50246002400230025002064
:102CA00040F66A16B14200D100BFC1F3421501F0EF
:102CB0001F03012606FA03F3012D02D19689334042
:102CC00006E0022D02D1168A334001E0968A334095
:102CD0000C12012606FA04F41688344013B10CB124
:102CE000012000E0002070BDF0B50346002400265E
:102CF0000025002040F66A17B94200D100BF1846EF
:102D0000C1F3421401F01F06012707FA06F5012C52
:102D100001D10C3004E0022C01D1103000E014305D
:102D20001AB107682F43076002E00768AF430760E6
:102D3000F0BD00002DE9F04786B005460E460024A0
:102D4000A24600BFA1460027B08900B100BF2F46B0
:102D50002C8A4CF6FF700440F08804432C82AC8926
:102D60004EF6F3100440B088318908437189084356
:102D70000443AC81AC8A4FF6FF400440B089044361
:102D8000AC8201A8FFF760F81F48874202D1DDF846
:102D900010A001E0DDF80CA0A88900F4004040B1CB
:102DA0000AEBCA0000EB0A1031684900B0FBF1F8E9
:102DB00007E00AEBCA0000EB0A1031688900B0FB9B
:102DC000F1F86420B8FBF0F004012009642101FB54
:102DD0001089A88900F4004040B1322000EBC900FE
:102DE000B0FBF1F000F00700044308E0322000EBF4
:102DF00009106421B0FBF1F000F00F0004432C81B6
:102E000006B0BDE8F0870000003801400146888820
:102E1000C0F308007047C1F30802828070474FF486
:102E20001651016000218180C18001810C21418106
:102E300000218181704700BFFEE7000031B500240A
:102E4000012269460248FEF74FF9C4B2204638BD58
:102E5000BC0000200FB4054B10B503A9044A02982A
:102E600000F09AF810BC5DF814FB0000CD46000895
:102E7000A8000020490050EAC12018BF04204A0DD4
:102E800018BF40F0010040F2FF72B2EB515F08BF83
:102E900040F00200012808BF052070472DE9F041ED
:102EA0004F1E00EBC7010446D1E9000115461E463E
:102EB00037F006020DD02A463346FDF714FB7F1E7D
:102EC00004EBC703D3E90023FDF766FA37F00602E7
:102ED000F1D1022F25D0042F13D0062F18BFBDE843
:102EE000F0812A463346FDF7FEFAD4E90A23FDF7BE
:102EF00053FA2A463346FDF7F6FAD4E90823FDF7DC
:102F00004BFA2A463346FDF7EEFAD4E90623FDF7DD
:102F100043FA2A463346FDF7E6FAD4E90423FDF7DF
:102F20003BFA2A463346FDF7DEFAD4E90223FDF7E1
:102F300033FA2A463346FDF7D6FAD4E90023BDE832
:102F4000F041FDF729BA0122FDF712BDFDF724BAC1
:102F50000022134610461146FDF737BB024A0020F7
:102F60001107FDF705BD000001FDFFFF02E008C8E5
:102F7000121F08C1002AFAD170477047002001E0F3
:102F800001C1121F002AFBD17047000001490860EF
:102F900070470000AC0000202DE9FF4F8DB00F46B8
:102FA0000546002606E025280BD0DDE90F129047E4
:102FB0006D1C761C28780028F5D111B03046BDE88C
:102FC000F08F0024A246A1460122EC4900E0044310
:102FD00015F8013F203B02FA03F00842F7D12878A8
:102FE0002A2810D06FF02F022878A0F1300109298B
:102FF00014D80AEB8A0102EB410144F0020400EB11
:10300000010A6D1CF0E701CF5FEA000A03D544F422
:103010000054CAF1000A44F002046D1C28782E28DE
:1030200017D115F8010F44F004042A280ED06FF0D0
:103030002F022878A0F1300109290AD809EB89016B
:1030400002EB410100EB01096D1CF2E757F8049B0C
:103050006D1C28786C280FD006DC4C2817D0682807
:103060000DD06A2814D104E0742810D07A280FD12A
:103070000DE044F400140AE044F4801401E044F448
:1030800040146978814202D104F580146D1C6D1CD6
:103090002A786E2A1FD00CDC632A31D004DC002A87
:1030A0008BD0582A11D1A3E0642A68D0692A0CD1A8
:1030B00065E0732A2ED004DC6F2A73D0702A04D105
:1030C0009BE0752A6FD0782A6ED01046DDE90F128A
:1030D0009047761C50E1C4F30250022806D0032822
:1030E00009D0042801CF09D0066045E101CFF117CE
:1030F000C0E9006140E101CF06803DE106703BE19F
:1031000017F8040B8DF8000000208DF80100EB4645
:10311000012003E057F804BB4FF0FF3061074FF088
:10312000000102D40DE008F10101884649450FDA9B
:103130008045F8DB1BF808100029F4D108E008F1FD
:10314000010188468142FADB1BF808100029F6D1FC
:10315000DDE90F23AAEB08008146214600F036F98D
:10316000304400EB080604E0DDE90F121BF8010B08
:103170009047B8F10108F7D221464846F7E00A2106
:10318000C4F302534FF0000B0891022B04D001CF7F
:10319000C117032B09D00AE0FF1D27F00707F7E846
:1031A000020108E032E01FE020E000B2C117042B6A
:1031B00001D140B2C117031E71F1000307DA4FF0CD
:1031C000000CD0EB0C006CEB01012D2302E0230579
:1031D00004D52B238DF82430012303E0E30701D02D
:1031E0002023F7E7984658E00A2110E010210EE06E
:1031F00010204FF0000B08900CE010214FF0000B56
:1032000044F004044FF00809089103E008214FF04E
:10321000000B0891C4F30253022B04D001CF00210C
:10322000032B06D006E0FF1D27F00707F7E8020191
:1032300003E080B2042B00D1C0B24FF00008230796
:103240002BD5702A07D0DDF820C08CF0100C5CEA7A
:103250000B0C05D00EE040238DF82430012308E04C
:1032600050EA010306D030238DF824308DF8252054
:1032700002239846DDF820C08CF0080C5CEA0B0CA9
:103280000BD150EA010301D1630706D530238DF835
:1032900024304FF00108A9F10109582A04D038A2BE
:1032A0000B9208AA0A920BE03AA2F9E75B46089A49
:1032B000FDF778FA0B9B9B5C0A9A521E0A921370D8
:1032C00050EA0102F2D10A98ADEB000000F1200BA8
:1032D000600702D524F4803401E04FF00109D9459C
:1032E00002DDA9EB0B0000E0002000EB0B014144E4
:1032F0000890AAEB010AE00306D4DDE90F2321467A
:10330000504600F063F806444FF0000908E009A9B0
:1033100011F80900DDE90F12904709F10109761C47
:10332000C145F4DBE0030CD5DDE90F23214650460F
:1033300000F04CF8064404E0DDE90F12302090471D
:10334000761C0899481E08900029F5DC08E00A98C8
:103350000A990078491C0A91DDE90F129047761C02
:10336000BBF10001ABF1010BF1DC21465046DDE978
:103370000F2300F019F806446D1C1BE60928010014
:1033800030313233343536373839616263646566DB
:10339000000000003031323334353637383941429D
:1033A00043444546000000002DE9F0410446002555
:1033B0001E461746880404D405E039462020B0474D
:1033C0006D1C641EF9D52846BDE8F0812DE9F04159
:1033D000044600251E469046C80301D5302700E06C
:1033E0002027880404D505E041463846B0476D1CC7
:1033F000641EF9D52846BDE8F08100002DE9FE4F96
:1034000006460F460025684601F068F9002442E0B0
:1034100056F8240057F82410A0EB010ABAF1000F67
:1034200001DB514601E0CAF100010846FDF73CF915
:1034300083464FF08F41FCF771FF80465DF8240012
:103440000021FDF79BF916D05DF824104046FCF7EB
:1034500065FF82464FF07E51FCF728FF814629F038
:10346000004A0F48416A5046FDF792F912D20120F6
:10347000A04005430EE00A48C1694046FDF77EF9C9
:1034800005D30748016A4046FDF782F902D20120C0
:10349000A0400543641C032CBADB2846BDE8FE8F20
:1034A000406D00082DE9F04D8D4F21F0004A86B0A7
:1034B00005460C46BA452ADBAAEB070028430AD08A
:1034C0008848824501DC1AD1CDB106B02846BDE856
:1034D000F04DFFF738BD844A844B2846FDF703F8CA
:1034E00007460E46824A834B28462146FCF7FBFFDF
:1034F00006B03A463346BDE8F04DFCF74DBF01201B
:10350000FFF744FD06B0BDE8F04DFFF721BD7A4856
:10351000824542DABAF1795F0BDA2846FFF7AAFC56
:10352000042808BFFFF71AFD284606B02146BDE86B
:10353000F08D2A460B461046FCF7D5FF834602461F
:103540006E480E460B4606217844FFF7A7FC5A4604
:103550003346FCF7C8FF804669488A465A463346D8
:1035600004217844FFF79AFC5A463346FCF7BBFF28
:1035700000223B46FCF710FF02460B4640465146F0
:10358000FDF723F82A462346FCF7ADFF06B02A468E
:103590002346BDE8F04DFCF7FFBE284624F000416D
:1035A00000223D463B46FCF79BFF4FF0FF32FDF704
:1035B000DFF90646024653480F460B46062178447B
:1035C000FFF76CFC32463B46FCF78DFFCDE900016E
:1035D0004D4832463B4604217844FFF75FFC3246B3
:1035E0003B46FCF780FF00222B46FCF7D5FE8346C6
:1035F00002913046394602F06DFD804643480D4643
:10360000504517DCDDE900015A46029BFCF7DDFF5F
:1036100042462B46FCF767FF42462B46FCF7BCFEB2
:103620000122FDF7A5F9304A304BFCF756FF304A2E
:10363000304B4CE04FF0000A52460B464046FCF738
:10364000ABFECDE9031052462B4610461946FCF757
:103650004AFF32463B46FCF743FFDDE90332FCF705
:10366000B4FF06460F46DDE900015A46029BFCF70F
:10367000ACFF83460091012230463946FDF778F9C8
:10368000194A1A4BFCF72CFF06460F46012240460A
:103690002946FDF76DF95A46009BFCF724FF324698
:1036A0003B46FCF71AFF06460F46012250462946C4
:1036B000FDF75EF90E4DDFF858802A464346FCF7C9
:1036C0000FFF32463B46FCF70BFF2A464346FCF70A
:1036D00007FF002CD8BF81F0004106B0BDE8F08D97
:1036E0000000F03F0000F07F075C143326A6913CF9
:1036F000182D4454FB21F93F0000E03F1C38000026
:1037000032380000A6370000BC3700003333EF3FEB
:10371000FB21E93F2DE9F84F04460D4621F000401A
:1037200000917349814211DC7249884201DC06D163
:103730002CB120462946BDE8F84FFFF704BC6E487F
:10374000002DCCBF6D496E49BDE8F88F6D498142AF
:1037500011DD6D498142D8BF4FF0FF366DDD204647
:103760002946FFF787FB042808BFFFF7F7FB204631
:103770002946BDE8F88F6549654F25F0004581422F
:1037800033DD6449814219DD002632464FF0804323
:1037900020462946FCF700FE80468A460122204644
:1037A0002946FDF7E5F800223B46FCF796FE424627
:1037B0005346FCF70AFF04460D463EE00126002270
:1037C000BA463B4620462946FCF7E6FD80460F46B2
:1037D0000022534620462946FCF77FFE42463B46E0
:1037E000FCF7F3FE04460D4627E04B4981421BDD02
:1037F000DFF828A102260022534620462946FCF77E
:1038000072FE00223B46FCF7C7FD80460F460022B1
:10381000534620462946FCF760FE42463B46FCF7ED
:10382000D4FE04460D4608E0032622462B4600201F
:103830003B49FCF7CAFE04460D4622462B4610467D
:103840001946FCF750FE8B46824602460B46FCF7B3
:103850004AFE07460246334888460B46062178440E
:10386000FFF71CFB52465B46FCF73DFE82462E48A6
:103870008B463A46434605217844FFF70FFB3A460C
:103880004346FCF730FE02460B46002E5046594692
:103890000CDAFCF781FD22462B46FCF724FE01B032
:1038A00022462B46BDE8F04FFCF71ABEFCF774FD2C
:1038B00022462B46FCF717FE1C4A7A4402EBC6034D
:1038C000D3E90023FCF709FE22462B46FCF705FE50
:1038D000174A7A4402EBC603D3E90023FCF700FE43
:1038E000009A002AB8BF81F00041BDE8F88F0000BF
:1038F000000010440000F07F182D4454FB21F93FD4
:10390000FB21F9BF0000DC3F0000203E0000F33F38
:103910000000F03F0000E63F008003400000F83F59
:103920000000F0BFBE3500007C3500001A350000F5
:10393000E23400002DE9F04D9446CCF1000423F070
:1039400000464CEA0404524F46EAD4749A4688462C
:1039500021F00042BC4206D8454240EA050442EA52
:10396000D474BC4204D9BDE8F04D6246FFF7EEBA0C
:10397000AAF14055A5F17F6555EA0C040BD002244D
:1039800004EAAA74434DDFF810E144EAD87452EA1D
:10399000000B04D00CE0BDE8F04DFFF7BBBE002CDF
:1039A00014BF012CBDE8F08D022C30D0032C32D096
:1039B00056EA0C0B0AD0BE4220D1BA4209D126F0F9
:1039C000804622F080423346114617E000291ADB78
:1039D00025E0DFF8C8B0FB44002C04BFDBE90001A0
:1039E000BDE8F08D012C02BFDBE9000181F0004150
:1039F000BDE8F08D022C0AD0032C0CD0BA4212D1B3
:103A0000B8F1000F0BDA23482549BDE8F08D2846B0
:103A10002449BDE8F08D28467146BDE8F08D1D486B
:103A20002149BDE8F08D921B12153C2AC4BF1948EC
:103A30001D490EDCBAF1000FBEBF12F13C0F002091
:103A4000014606DB6246FCF7C0FD21F00041FFF7AE
:103A500061FE002C08BFBDE8F08D012C04BF81F091
:103A60000041BDE8F08D114A114B022C07D0FCF744
:103A700034FD2A46BDE8F04D0A4BFCF72EBDFCF79D
:103A80002CFD2A46BDE8F04D064BFCF729BD000091
:103A90000000F07F182D4454FB2109C0763400004B
:103AA000FB21F9BFFB210940FB21F93F075C1433DF
:103AB00026A6A13C2DE9F0410446E07800F0C006BE
:103AC000E07800F03F05607800F0010098B1EF1059
:103AD0002846E91705EB5171C910A5EBC101491C36
:103AE00001F0FF080B48006820B10A48414602680F
:103AF0003846904700BF607800F0080030B10548B4
:103B0000406818B1B011034A516888470020BDE8E9
:103B1000F08100009001002038B5044664B12020F7
:103B20008DF8000028208DF8010030208DF802006B
:103B300038208DF8030004E0A32204216846FCF736
:103B400044FB6A46042140F69E2002F0F1F901F0A0
:103B5000DBFD38BD3EB5044602208DF80000CA20CA
:103B60008DF80100E3208DF8020009208DF8030094
:103B70006A460421682002F0DBF9A3208DF80000DA
:103B800004F0400048B1C0208DF80100C8208DF835
:103B90000200C2208DF8030006E0A3208DF801008A
:103BA0008DF802008DF8030004F4C07048B1C42001
:103BB0008DF80400CC208DF80500C6208DF8060095
:103BC00006E0A3208DF804008DF805008DF80600AE
:103BD000A3208DF807008DF808008DF809006A46CB
:103BE0000A2140F6A72002F0A3F904F0030018B15F
:103BF00020208DF8000002E0D8208DF800006A46F1
:103C0000012140F6B62002F093F904F0200018B12B
:103C1000012000F0ADF802E0002000F0A9F804F463
:103C2000C07008B304F4807060B1B2208DF8000059
:103C30008B208DF80100B6208DF802009B208DF8B6
:103C400003000BE0B0208DF8000080208DF801000B
:103C5000B4208DF8020090208DF803006A460421FC
:103C600040F6A22002F064F904F0010020B3F8202D
:103C70008DF800006A4601214FF40B6002F058F9FC
:103C8000FA21072000F02CFC072000F0F3FB0120B4
:103C900000F013FC642000F0F3FC4FF4FA7000F025
:103CA00002FDC821304800F0A3FB282000F0BCFB37
:103CB0000A2000F0CCFB08E0D8208DF800006A460E
:103CC00001214FF40B6002F033F904F0020018B147
:103CD000D9208DF8000002E0D8208DF800006A4657
:103CE000012140F23D7002F023F904F0040018B104
:103CF000012000F069F802E0002000F065F804F00F
:103D0000100018B10120FFF707FF02E00020FFF7C5
:103D100003FF44F008001549488101F0F5FC00203C
:103D20001249887304F0400018B10846807B801D5A
:103D3000887304F4C07020B10C48807B801D0B494F
:103D4000887304F0140020B10848807B10300749C4
:103D5000887304F0030020B10448807B001D0349F0
:103D6000887300203EBD000009E3CA0290010020D4
:103D70003EB504466CB10EA1D1E900208968CDE9B9
:103D8000002002916A4609214FF4976002F0D0F8B2
:103D90003EBD0AA2D2E900109268CDE9010200916D
:103DA0006A4609214FF4976002F0C2F8F0E700007C
:103DB000B8AAB38DB4980D355D000000B8AAAAAAC0
:103DC000B088C3C5C700000038B5044664B1C02040
:103DD0008DF80000C2208DF80100C4208DF802008B
:103DE000C6208DF8030004E08B2204216846FCF70E
:103DF000ECF96A46042140F6982002F099F801F0A7
:103E000083FC38BD10B5C8234FF48062024940F6E8
:103E1000F63001F02BFB10BD206100082DE9F04FBA
:103E20008DB00746884615469946DDE9166B002495
:103E3000002030806B49887B5A4605A901F0E2FBDF
:103E400018B1601E0DB0BDE8F08F6648807A00F0B2
:103E50001400002867D09DF8140000069DF8151086
:103E600040EA01409DF8161040EA01209DF8171025
:103E7000084328609DF8180000069DF8191040EAD4
:103E800001409DF81A1040EA01209DF81B100843DC
:103E900068609DF81C0000069DF81D1040EA014076
:103EA0009DF81E1040EA01209DF81F100843A860ED
:103EB0009DF8200000069DF8211040EA01409DF881
:103EC000221040EA01209DF823100843E86004F125
:103ED0001000C4B2286800140190686800140290B1
:103EE000A86800140390E868001404900198404307
:103EF000029901FB0100039901FB0100049901FBF8
:103F0000010ABAF1706F02DBBAF1885F05DD01F0DA
:103F1000FBFB00203080401E94E7B6F9000040F41F
:103F20008070308000BF2F48807A00F0400020B3BE
:103F300005A9601C085C095D40EA012000B2A8F8F0
:103F4000000005A9E01C095C05AAA01C105C41EA60
:103F5000002000B2A8F8020005A9601D095C201D20
:103F6000105C41EA002000B2A8F80400A01DC4B211
:103F7000B6F9000040F0080030801A48408900F48B
:103F8000C07008B305A9601C085C095D40EA012007
:103F900000B2388005A9E01C095C05AAA01C105CD1
:103FA00041EA002000B2788005A9601D095C201D4F
:103FB000105C41EA002000B2B880A01DC4B2B6F97E
:103FC000000040F0700030800648807A00F0030066
:103FD00018B105A90819FFF76DFD484600F0D9FE94
:103FE00000202FE79001002070B588B0064601A898
:103FF00001F090F8BDF804000021C90341EA5045E2
:10400000C4034448007A00F0030056F820000590ED
:104010004048007A00F0040010B105984042059035
:104020003C48007AC0F3C10056F820000690394899
:10403000007A00F0200010B1069840420690354802
:10404000007AC0F3811056F82000079031480089AB
:1040500000F4807010B10798404207900598C1178E
:10406000A0FB042301FB043100FB0510810041EAA1
:10407000927005900698C117A0FB042301FB043140
:1040800000FB0510810041EA927006900798C11765
:10409000A0FB042301FB043100FB0510810041EA71
:1040A000927007900598000E8DF808000598000C96
:1040B0008DF809000598000A8DF80A000598C0B22D
:1040C0008DF80B000698000E8DF80C000698000C79
:1040D0008DF80D000698000A8DF80E000698C0B203
:1040E0008DF80F000798000E8DF810000798000C4F
:1040F0008DF811000798000A8DF812000798C0B2D9
:104100008DF8130002AA0C214FF4257001F010FF66
:1041100008B070BD9001002030B585B0044616A2ED
:1041200007CA02AB07C3C82C03DD4FF0FF3005B050
:1041300030BDC82090FBF4F0401E85B2280A8DF8EF
:104140000000E8B28DF801006A46022140F2162014
:1041500001F0EEFE10B14FF0FF30E8E702AA0C21AB
:1041600040F6C12001F0E4FE10B14FF0FF30DEE771
:10417000044884810020DAE7FEF2ABC4AAF1DFDF55
:10418000BBAFDFDF900100201FB504464848007A2E
:1041900000F0030054F8200001904548007A00F038
:1041A000040010B10198404201904148007AC0F3E8
:1041B000C10054F8200002903D48007A00F0200031
:1041C00010B10298404202903948007AC0F3811041
:1041D00054F8200003903648008900F4807010B134
:1041E0000398404203903349019880FB0101800FFE
:1041F00040EA810001902F49029880FB0110820063
:1042000042EA917002902B49039880FB01108200D2
:1042100042EA917003900198000E8DF80000019819
:10422000000C8DF801000198000A8DF80200019839
:10423000C0B28DF803006A4604214FF4747001F097
:1042400077FE18B14FF0FF3004B010BD0298000E99
:104250008DF800000298000C8DF801000298000A09
:104260008DF802000298C0B28DF803006A4604215E
:104270004FF4757001F05CFE10B14FF0FF30E3E7D2
:104280000398000E8DF800000398000C8DF80100D3
:104290000398000A8DF802000398C0B28DF803005D
:1042A0006A4604214FF4767001F042FECCE700002C
:1042B0009001002009E3CA0210B586B0044647A069
:1042C0000068039046A00068029046A00068019034
:1042D00045A00068009004F0030003A9085C8DF875
:1042E000140003A8C4F3C101405C8DF8150003A8B5
:1042F000C4F38111405C8DF8160004F0030002A99C
:10430000085C8DF8100002A8C4F3C101405C8DF870
:10431000110002A8C4F38111405C8DF8120005AAB7
:10432000032140F2264001F003FE18B14FF0FF30A8
:1043300006B010BD04AA032140F22A4001F0F8FDA6
:1043400010B14FF0FF30F3E701980590009804900A
:1043500004F0040058B19DF8140040F001008DF8FD
:1043600014009DF8100040F001008DF8100004F0DA
:10437000200058B19DF8150040F001008DF815009F
:104380009DF8110040F001008DF8110004F48070D8
:1043900058B19DF8160040F001008DF816009DF808
:1043A000120040F001008DF8120005AA03214FF41D
:1043B000886001F0BDFD10B14FF0FF30B8E704AAEE
:1043C000032140F2314001F0B3FD10B14FF0FF3056
:1043D000AEE7064804810020AAE700004CCD6C003F
:1043E0000CC92C0036567600264666009001002047
:1043F000F8B505460E464FF47A7095FBF0F000FBD9
:1044000006F4200E8DF80000200C8DF80100200A23
:104410008DF80200E0B28DF803006A4604214FF4E3
:10442000AE7001F085FDF8BD38B50446052094FB5B
:10443000F0F084B220128DF80000E0B28DF8010097
:104440006A4602214FF4AD7001F072FD38BD38B5F7
:104450000446052094FBF0F084B220128DF8000091
:10446000E0B28DF801006A4602214FF4AC7001F011
:104470005FFD38BD38B504460020009004F001000F
:1044800020B19DF8000040F03000009004F00200E0
:1044900020B19DF8000040F00C00009004F00400F2
:1044A00020B19DF8000040F0030000906A46012111
:1044B0004FF4A47001F03CFD38BD38B50446012C22
:1044C00001DA012402E0042C00DD0424601EC0B2E5
:1044D00000906A46012140F24F1001F029FD38BDDD
:1044E0002DE9FC4706460F4606F0070010B1B7F568
:1044F000C86F03DD4FF0FF30BDE8FC873846FCF79E
:10450000DCF881465949FBF709FF8046684600F010
:10451000DBFD9DF80000022806D0042816D00828EC
:1045200026D0102848D135E04FF08D414046FBF7AA
:10453000C3FE8146FCF7DFF884B24D494046FBF7E5
:10454000BBFE8146FCF7D7F885B238E04FF08C41CE
:104550004046FBF7B1FE8146FCF7CDF884B24549F1
:104560004046FBF7A9FE8146FCF7C5F885B226E078
:104570004FF08B414046FBF79FFE8146FCF7BBF8AE
:1045800084B23D494046FBF797FE8146FCF7B3F8FD
:1045900085B214E04FF08A414046FBF78DFE81461C
:1045A000FCF7A9F884B235494046FBF785FE814601
:1045B000FCF7A1F885B202E04FF0FF309CE700BFA6
:1045C00020128DF80400E0B28DF8050028128DF855
:1045D0000600E8B28DF8070006F00100A0B101AABC
:1045E00002214FF4EA7001F0A3FC10B14FF0FF304C
:1045F00082E70DF1060202214FF4927001F098FC5F
:1046000010B14FF0FF3077E706F00200A0B101AA29
:1046100002214FF4EC7001F08BFC10B14FF0FF3031
:104620006AE70DF1060202214FF4947001F080FC5C
:1046300010B14FF0FF305FE706F00400A0B101AA0F
:1046400002214FF4EE7001F073FC10B14FF0FF3017
:1046500052E70DF1060202214FF4967001F068FC5A
:1046600010B14FF0FF3047E7002045E70000484316
:10467000000040460000C045000040450000C04426
:1046800038B50446052094FBF0F085B228128DF869
:104690000000E8B28DF801006A4602214FF4EF7085
:1046A00001F046FC38BD38B50446052094FBF0F017
:1046B00085B228128DF80000E8B28DF801006A4634
:1046C00002214FF4ED7001F033FC38BD70B50446A3
:1046D0000D46E0B2FDF7DEFC204670BD7CB5054618
:1046E00028494968087801AB04220D21FDF73FF9FC
:1046F00008B107207CBD9DF80700C0F301109DF8AC
:10470000041001F0E00140EAE1008DF800009DF89E
:104710000700C0F381009DF8051001F0E00140EAB8
:10472000E1008DF801009DF8070000F003009DF8FE
:10473000061001F0E00140EAE1008DF802000024DB
:104740001CE01DF8040018B9002045F8240013E00F
:104750000D4845F8240006E055F824000B49FBF706
:10476000ABFD45F824001DF80400401EC0B20DF852
:1047700004000028F0D100BF601CC4B2032CE0DBB1
:104780000020B7E7440000207B14AE3E1D5A843F52
:104790002DE9F04F87B005460C46914601208DF873
:1047A000100000208DF81100FE4A1268917CFD4A2D
:1047B0005268107804AB0222FDF77FF920B14FF068
:1047C000FF3007B0BDE8F08FC820FCF7DBFB00200E
:1047D0008DF81000F34A1268D17BF24A52681078C3
:1047E00004AB0122FDF769F910B14FF0FF30E8E7A3
:1047F000EC4A12685179EB4A5268107804AB0122F6
:10480000FDF75BF910B14FF0FF30DAE7E54A1268C7
:10481000917CE44A5268107804AB0122FDF74DF90F
:1048200010B14FF0FF30CCE7DE4A1268D17DDD4A8F
:104830005268107804AB0122FDF73FF910B14FF038
:10484000FF30BEE7D74A12681179D64A526810780D
:1048500004AB0122FDF731F910B14FF0FF30B0E7A2
:104860000C208DF81000CF4A12681179CD4A526899
:10487000107804AB0122FDF720F910B14FF0FF30A2
:104880009FE70F20FCF77EFBC648806A407A8DF8D0
:104890001000C44A12689178C24A5268107804AB7A
:1048A0000122FDF70AF910B14FF0FF3089E7BD484A
:1048B000806A007A8DF81000BA4A12685178B94AB5
:1048C0005268107804AB0122FDF7F7F810B14FF0F1
:1048D000FF3076E7B9F1000F07D0B248806A807ADE
:1048E00040F0E0008DF8100004E0AE48806A807A65
:1048F0008DF81000AB4A12689179AA4A5268107874
:1049000004AB0122FDF7D9F810B14FF0FF3058E7A2
:10491000B9F1000F07D0A348806AC07A40F0E000E8
:104920008DF8100003E0A048C07A8DF810009D4A71
:104930001268D1799B4A5268107804AB0122FDF7C6
:10494000BCF810B14FF0FF303BE7B9F1000F02D0D7
:10495000C820FCF717FB40208DF81000914A126820
:104960001179904A5268107804AB0122FDF7A5F83E
:1049700010B14FF0FF3024E778208DF81000894AFD
:1049800012685179874A5268107804AB0122FDF70A
:1049900094F810B14FF0FF3013E783498889FCF792
:1049A000F1FA00208DF810007E4A126851797D4A94
:1049B0005268107804AB0122FDF77FF810B14FF078
:1049C000FF30FEE6774A1268917A764A526810788C
:1049D00004AB0222FCF7CBFF10B14FF0FF30F0E642
:1049E0009DF811009DF8101040EA012B0C209BFB54
:1049F000F0F0C6B20020A86068602860A060606027
:104A00002060824665E0674A1268D17A654A52683A
:104A1000107804AB0C22FCF7AAFF10B14FF0FF3066
:104A2000CFE69DF811009DF8101040EA012000B279
:104A3000ADF808009DF813009DF8121040EA01201F
:104A400000B2ADF80A009DF815009DF8141040EA78
:104A5000012000B2ADF80C00BDF908102068084430
:104A60002060BDF90A10606808446060BDF90C1050
:104A7000A0680844A0609DF817009DF8161040EA51
:104A8000012000B2ADF800009DF819009DF8181043
:104A900040EA012000B2ADF802009DF81B009DF82D
:104AA0001A1040EA012000B2ADF80400BDF9001070
:104AB000286808442860BDF90210686808446860E6
:104AC000BDF90410A8680844A8600AF1010000F0CC
:104AD000FF0AB24597DB3448D0F800C02868C117F8
:104AE000090441EA10410704624600233846FBF7F7
:104AF0003BFB32460023CDE90201FBF735FB286082
:104B00002948D0F800C06868C117090441EA10417B
:104B10000704624600233846FBF726FB3246002393
:104B2000CDE90201FBF720FB68601F48D0F800C008
:104B3000A868C117090441EA10410704624600232E
:104B40003846FBF711FB32460023CDE90201FBF7A3
:104B50000BFBA8601448D0F804C02168C8170004F3
:104B600040EA11480F046246002338464146FBF7ED
:104B7000FBFA32460023CDE90201FBF7F5FA20608B
:104B80000948D0F804C06068C117090441EA10411F
:104B90000704624600233846FBF7E6FA3246002354
:104BA00004E0000044000020406D0008CDE902014F
:104BB000FBF7DAFA60601148D0F804C0A068C117AA
:104BC000090441EA10410704624600233846FBF716
:104BD000CBFA32460023CDE90201FBF7C5FAA0600B
:104BE000A068002804DDA068A0F58030A06003E084
:104BF000A06800F58030A0600020E2E5406D00086C
:104C00002DE9FC5F06460F4600253D4949680878B6
:104C100001AB03220D21FCF7AAFE10B10720BDE86D
:104C2000FC9F9DF8040000F01F008DF804009DF823
:104C3000050000F01F008DF805009DF8060000F04B
:104C40001F008DF80600002456E056F8240057F89F
:104C50002410A0EB010BBBF1000F01DB594601E072
:104C6000CBF100010846FBF71FFD4FF08F4100908C
:104C7000FBF754FB814601A8005D68B32149086831
:104C8000FBF71BFD834659461F48FBF747FB804651
:104C900004E01E494046FBF70FFB804601A8005D7B
:104CA000401EC0B201A908550028F2D1414648462D
:104CB000FBF734FB83464FF07E51FBF7F7FA824651
:104CC0002AF0004B0F4881695846FBF761FD12D26C
:104CD0000120A04005430EE00A4801694846FBF761
:104CE0004DFD05D3074841694846FBF751FD02D207
:104CF0000120A0400543641C032CA6DB28468EE758
:104D000044000020406D000800B04C4554E3853F4E
:104D100010B50446204600F00FF80346E01C00F0F2
:104D20000BF843EAC00083B2A01D00F005F843EA87
:104D3000801083B2184610BD014691F90020002A68
:104D400001DD00201EE091F90020002A01DA042094
:104D500018E091F90120002A01DD012012E091F90B
:104D60000120002A01DA05200CE091F90220002A36
:104D700001DD022006E091F90220002A01DA062076
:104D800000E007207047FCF721FB01E0FDF707F882
:104D9000FCE7704770B50446002624F0010418486B
:104DA00090F8240008B1002070BD1548807A10B931
:104DB0004FF0FF30F8E71248057C807A2040104918
:104DC00008740846007CA04202D04FF0FF3600E095
:104DD000002614B90A48007D18B1012001F032F90B
:104DE00002E0002001F02EF93CB100F08DFC20B172
:104DF000034805744FF0FF30D6E73046D4E7000093
:104E0000440000202DE9F04F99B004460D461646A7
:104E10004FF07E574FF000084FF000094FF0000AA6
:104E200012A813A918AB0EAACDE9001014A916A850
:104E3000FEF7F4FF18B1012019B0BDE8F08FBDF8FE
:104E40004C0000F4807000287ED00E98FBF72CFCFC
:104E500083464FF09D41FBF761FA07460F98FBF739
:104E600023FC83464FF09D41FBF758FA804610988B
:104E7000FBF71AFC83464FF09D41FBF74FFA814642
:104E80001198FBF711FC83464FF09D41FBF746FA62
:104E9000824639464FF08040FBF70EFA49460590AE
:104EA000FBF70AFA414607904FF04040FBF704FA3F
:104EB00051460590FBF700FA06900799FBF7A4F915
:104EC0008346FBF72CFCCDE90801FEF7EBFA4FF027
:104ED0006632544BCDE90A01FBF705FBCDE90C0125
:104EE000FBF730FC206049464FF08040FBF7E4F9C7
:104EF00049460290FBF7E0F9414604904FF04040EC
:104F0000FBF7DAF941460290FBF7D6F903900499D2
:104F1000FBF7CCF983464FF07E51FBF775F905900E
:104F2000FBF7FDFBCDE9080139464FF08040FBF768
:104F3000C3F941460390FBF7BFF9494604904FF08F
:104F40008040FBF7B9F900E068E051460390FBF7B9
:104F5000B3F983460499FBF757F90590FBF7DFFB9C
:104F6000CDE90601DDE90823FEF7E4FC4FF06632E7
:104F70002C4BCDE90A01FBF7B6FACDE90C01FBF7A2
:104F8000E1FB286051465046FBF796F949460490EC
:104F90004846FBF791F9414603904046FBF78CF9F0
:104FA000394601903846FBF787F900900199FBF7E5
:104FB0002BF902900399FBF779F983460499FBF7E3
:104FC00075F90590FBF7ABFBCDE908015146384672
:104FD000FBF772F9494604904046FBF76DF90390E0
:104FE0000499FBF711F94FF080410590FBF764F944
:104FF0008346FBF794FBCDE90601DDE90823FEF7C4
:1050000099FC4FF06632074BCDE90A01FBF76BFACA
:10501000CDE90C01FBF796FB306001E002200BE7C5
:10502000002009E766A64C4070B50024FCF702FB9F
:1050300000F024F9002840D1782000F011FFC4B21C
:105040000CB1012070BD7820FFF7A4FEC4B20CB1F2
:105050000220F7E7C82000F0B5FEC4B20CB103206F
:10506000F0E7FEF7CFFEC4B20CB10420EAE7154822
:10507000FFF74EFE0546FFF71FF9C4B20CB105203D
:10508000E0E740F27310FEF765FDC4B20CB10620F4
:10509000D8E7C820FFF740F8C4B20CB10720D1E729
:1050A00000F086FF04460CB10820CBE7012000F099
:1050B00085FDC4B21CB10920C4E70A20C2E7002064
:1050C000C0E700007000002001461148407A30B16E
:1050D000012807D0022808D003280CD108E00220BC
:1050E00008700BE00420087008E00820087005E054
:1050F0001020087002E04FF0FF30704700BF0448F6
:10510000C07C18B108784006000E08700020F4E753
:105110004400002001461348407A30B1012808D0ED
:1051200002280AD0032810D10BE04FF480400880F9
:105130000EE041F69C7008800AE04FF48050088031
:1051400006E04FF40060088002E04FF0FF30704747
:1051500000BF0448C07C10B10888401008800020BF
:10516000F5E700004400002001460248007C08707A
:10517000002070474400002001460F48007A30B1FB
:10518000012807D0022809D003280FD10AE0FA200D
:1051900008800EE04FF4FA7008800AE04FF47A704D
:1051A000088006E04FF4FA60088002E000200880E2
:1051B00000BF00BF002070474400002001460E4899
:1051C000007A30B1012807D0022808D003280CD17A
:1051D00008E00A4808600BE00948086008E0094850
:1051E000086005E00848086002E04FF0FF307047B3
:1051F00000BF0020FBE70000440000200000034344
:105200000000834233330342333383410146124863
:10521000C07A082817D2DFE800F01704070A0D103B
:105220001318BC20088013E06220088010E02A20B8
:1052300008800DE0142008800AE00A20088007E0BA
:105240000520088004E000BF00BF0020088000BFE8
:1052500000BF0020704700004400002001460648BF
:1052600090F8240010B14FF0FF3070470248C08919
:1052700008800020F9E70000440000201CB58020D1
:105280008DF80000654A1268917C644A5268107873
:105290006B460122FCF711FC10B14FF0FF301CBD32
:1052A0006420FBF76FFE00208DF800005B4A126857
:1052B000917C5A4A526810786B460122FCF7FDFB3C
:1052C00010B14FF0FF30EAE7544A1268917D534A1B
:1052D000526810786B460622FCF749FB10B14FF07C
:1052E000FF30DCE79DF80500C007400F9DF8031074
:1052F00001F0010140EA41009DF8011001F00101B7
:1053000040EA010494B1012C03D101214348C17446
:1053100031E0022C03D100214048C1742BE021462A
:105320003FA0FDF797FD4FF0FF30B8E73B4A12680A
:10533000D1783A4A526810786B460122FCF717FB85
:1053400010B14FF0FF30AAE79DF8000000F00F0405
:105350002CB93D48FDF77EFD4FF0FF309FE7042C50
:1053600006D13AA0FDF776FD01212C48C17402E078
:1053700000212A48C174FF2128488172FF20274953
:105380000872FF2125484172C1724FF6FF71C18139
:10539000FF21017481740121017380F82210002122
:1053A00080F82310417501751630016041608160FD
:1053B000163880F8241080F82510C1844FF4FA6064
:1053C00000F044FC10B14FF0FF3068E7022000F01D
:1053D0000DFB10B14FF0FF3061E72A2000F0B0FC68
:1053E00010B14FF0FF305AE7322000F0EBFC10B163
:1053F0004FF0FF3053E70020FFF7CCFC10B14FF027
:10540000FF304CE7002000F033FB10B14FF0FF30CD
:1054100045E7002000F024FD002040E74400002084
:10542000556E737570706F7274656420736F6674F7
:10543000776172652070726F64756374207265762F
:105440002025642E0A000000586E000848616C6632
:105450002073656E736974697669747920706172FE
:105460007420666F756E642E0A0000002DE9F0430B
:1054700085B005460E4690469946294890F8250085
:1054800020B14FF0FF3005B0BDE8F08316B94FF002
:10549000FF30F8E7002423E0281B102801DD10204E
:1054A00000E0281B87B232193946204600F040FD43
:1054B00010B14FF0FF30E6E701AA3946204600F070
:1054C000E3F810B14FF0FF30DDE730193A4601A99B
:1054D000FAF78DFE10B16FF00100D4E7E01984B245
:1054E000AC42D9DB4FEA28208DF8000008F0FF001D
:1054F0008DF801000A4A1268917E094A52681078B4
:105500006B460222FCF7D9FA10B14FF0FF30BAE730
:105510000121034880F82510A0F826900020B2E76A
:105520004400002038B50446282C02DD4FF0FF303F
:1055300038BDDCB9002000F0CDFB00208DF8000064
:1055400007208DF801002E4A1268917C2C4A52687F
:1055500010786B460222FCF7B0FA10B14FF0FF3022
:10556000E6E70021264801750020E1E7012000F070
:10557000B1FB20208DF80000012C06D100208DF811
:105580000100052000F0DCFB17E0052C06DC012003
:105590008DF80100052000F0D3FB0EE0142C06DC92
:1055A00002208DF801000A2000F0CAFB05E003206C
:1055B0008DF80100142000F0C3FB9DF801000721C5
:1055C00001EB8010C0B28DF801000D4A1268917C89
:1055D0000B4A526810786B460222FCF76EFA10B143
:1055E0004FF0FF30A4E708210548817200210173C4
:1055F000012101750020FFF7CDFB002098E7000096
:1056000044000020F8B504460F4615461D4890F8A2
:10561000240010B94FF0FF30F8BD1A48807A10B955
:105620004FF0FF30F8E7174A1268917A154A52682E
:1056300010786B460222FCF79AF910B14FF0FF3058
:10564000EAE79DF801009DF8001040EA0126A64215
:1056500003DA00202870401EDEE7E2B2094B1B6827
:10566000D97A084B5B6818783B46FCF780F910B193
:105670004FF0FF30D0E796FBF4F0401E287000207A
:10568000CAE7000044000020F8B504460D4616465F
:1056900016B94FF0FF30F8BD1A48807A10B94FF0B4
:1056A000FF30F8E720128DF80000E0B28DF801001D
:1056B0009DF801002844134949684989884202DD60
:1056C0004FF0FF30E7E70F4A1268117E0D4A52682B
:1056D00010786B460222FCF7F0F910B14FF0FF3062
:1056E000D9E7EAB2074B1B68597D064B5B6818780F
:1056F0003346FCF73CF910B14FF0FF30CBE7002008
:10570000C9E700004400002008B57048807A10B94D
:105710004FF0FF3008BD002000906C4A1268D17B2A
:105720006A4A526810786B460122FCF7C6F910B13C
:105730004FF0FF30EEE7654A12685179634A5268CC
:1057400010786B460122FCF7B8F910B14FF0FF302A
:10575000E0E75E4A126811795C4A526810786B463D
:105760000122FCF7AAF910B14FF0FF30D2E75748F9
:1057700090F82400002853D00C200090534A12685F
:105780001179524A526810786B460122FCF795F95C
:1057900010B14FF0FF30BDE73220FBF7F3FBC02024
:1057A00000904A48807A00F0010020B19DF8000086
:1057B00040F020000090454A12681179434A52682F
:1057C00010786B460122FCF778F910B14FF0FF30EA
:1057D000A0E73E48407C10B10220009001E000208C
:1057E00000903A4A1268D17B384A526810786B466A
:1057F0000122FCF762F910B14FF0FF308AE7002078
:105800000090324A12685179304A526810786B46DB
:105810000122FCF752F9002855D04FF0FF3079E70C
:1058200004200090294A12681179284A5268107899
:105830006B460122FCF741F910B14FF0FF3069E7E8
:105840002248807C20B92148807A00F0010010B9FC
:105850004020009001E0602000901C4A12681179FD
:105860001A4A526810786B460122FCF726F910B1EB
:105870004FF0FF304EE73220FBF784FB1348407CAB
:1058800010B10120009001E0002000900F4A126842
:10589000D17B0E4A526810786B460122FCF70DF955
:1058A00010B14FF0FF3035E7084A12685179074AC6
:1058B00052681078054B10330122FCF7FEF810B146
:1058C0004FF0FF3026E7002024E7000044000020CE
:1058D0002DE9F04F8DB083460F4602200C904248D0
:1058E00090F8240020B1002000F068F9012600E0C3
:1058F000002603A8FFF740FC05A8FFF7E5FB01A879
:10590000FFF784FC02A8FFF7A9FC374890F80AA02B
:1059100004A8FFF729FC002407E000223946584676
:10592000FEF736FF00B902E0641C022CF5DB00BF75
:10593000022C01D1002528E0002407E0012206A95D
:1059400009A8FEF725FF00B902E0641C022CF5DB74
:1059500000BF022C01D1002517E006A93846FDF74B
:105960004DFD00F0FF0809A95846FFF749F900F07E
:10597000FF090025B9F1000F01D145F00105B8F18B
:10598000000F01D145F0020500BFFF201649087243
:10599000FF2115484172C1724FF6FF71C181FF218D
:1059A0008172017401210173BDF80C0000F04EF901
:1059B0009DF8140000F01AF8BDF8040000F0C0F9DA
:1059C000BDF8080000F0FEF9504600F049FA9DF8D5
:1059D0001000FFF7DFF916B1012000F0EFF82846BC
:1059E0000DB0BDE8F08F00004400002038B504463B
:1059F0001E48807A10B94FF0FF3038BD022C06D017
:105A0000042C07D0082C08D0102C0CD108E0002062
:105A100000900BE00820009008E01020009005E0C6
:105A20001820009002E04FF0FF30E6E700BF0F487B
:105A3000407A9DF80010B0EBE10F01D10020DCE7C7
:105A40000A4A1268D179094A526810786B460122D5
:105A5000FCF733F810B14FF0FF30CEE79DF80000AF
:105A6000C110024841720020C7E700004400002036
:105A700038B504465048807CA04201D1002038BD92
:105A8000002C46D04C4A126811794B4A5268107863
:105A90006B460122FBF76BFF10B14FF0FF30EEE7D2
:105AA0009DF8000020F020000090434A1268117910
:105AB000414A526810786B460122FBF7FEFF10B195
:105AC0004FF0FF30DBE70320FBF75CFA0220009089
:105AD000394890F8220020B19DF8000040F0800085
